:100000000C942A000C9447000C9447000C94470071
:100010000C9447000C9447000C9447000C94470044
:100020000C9447000C9447000C9447000C94470034
:100030000C9447000C94BE020C9447000C944700AB
:100040000C9447000C9447000C9447000C94470014
:100050000C94470011241FBECFE5D8E0DEBFCDBF12
:1000600010E0A0E6B0E0E6EAF7E002C005900D92ED
:10007000AE3BB107D9F720E0AEEBB0E001C01D9276
:10008000AD3CB207E1F70E9447030C94D1030C94F6
:100090000000672B09F09FC0009711F4D8980895CD
:1000A0008130910511F4D99808958230910511F4A9
:1000B000DA9808958330910511F4DB98089584301F
:1000C000910511F4DC9808958530910511F4DD98BF
:1000D00008958630910511F4DE98089587309105D2
:1000E00011F4DF9808958A30910511F4C0980895AD
:1000F0008B30910511F4C19808958C30910511F45D
:10010000C29808958D30910511F4C39808958E30EA
:10011000910511F4C49808958F30910511F4C59894
:1001200008958031910511F4C698089581319105A3
:1001300011F4C79808958431910511F4A898089591
:100140008531910511F4A99808958631910511F42E
:10015000AA9808958731910511F4AB9808958831D4
:10016000910511F4AC9808958931910511F4AD9879
:1001700008958A31910511F4AE9808958B31910557
:1001800011F4AF9808958E31910511F49098089567
:100190008F31910511F4919808958032910511F4F1
:1001A000929808958132910511F4939808958232BE
:1001B000910511F4949808958332910511F495985E
:1001C00008958432910511F496980895859709F061
:1001D0009FC097980895009711F4D89A0895813098
:1001E000910511F4D99A08958230910511F4DA9AA3
:1001F00008958330910511F4DB9A089584309105B8
:1002000011F4DC9A08958530910511F4DD9A089572
:100210008630910511F4DE9A08958730910511F426
:10022000DF9A08958A30910511F4C09A08958B30B1
:10023000910511F4C19A08958C30910511F4C29A78
:1002400008958D30910511F4C39A08958E3091056B
:1002500011F4C49A08958F30910511F4C59A089548
:100260008031910511F4C69A08958131910511F4F8
:10027000C79A08958431910511F4A89A089585319B
:10028000910511F4A99A08958631910511F4AA9A5D
:1002900008958731910511F4AB9A0895883191053D
:1002A00011F4AC9A08958931910511F4AD9A08952D
:1002B0008A31910511F4AE9A08958B31910511F4AC
:1002C000AF9A08958E31910511F4909A08958F3167
:1002D000910511F4919A08958032910511F4929A42
:1002E00008958132910511F4939A0895823291050F
:1002F00011F4949A08958332910511F4959A089512
:100300008432910511F4969A0895859709F4979A85
:100310000895CF93C82F80FF07C061E070E088E1A7
:1003200090E00E94490006C060E070E088E190E043
:100330000E944900C1FF07C061E070E089E190E0E0
:100340000E94490006C060E070E089E190E00E94F0
:100350004900C2FF07C061E070E08AE190E00E94BE
:10036000490006C060E070E08AE190E00E94490028
:10037000C3FF07C061E070E08BE190E00E9449009C
:1003800006C060E070E08BE190E00E944900CF91F0
:100390000895CF93C82F60E070E084E190E00E9460
:1003A00049008C2F0E94890161E070E085E190E0B6
:1003B0000E94490089EF90E00197F1F700C000002A
:1003C00060E070E085E190E00E94490089EF90E0F4
:1003D0000197F1F700C00000CF91089580E00E94DE
:1003E000C90181E00E94C9010895CF93C62F8130D1
:1003F00059F480E8860F82958F700E94C9018C2F76
:100400008F700E94C9010CC0823051F480EC860FBD
:1004100082958F700E94C9018C2F8F700E94C90134
:10042000CF91089580E00E94890187E893E10197C8
:10043000F1F700C0000083E00E94C90181EE94E062
:100440000197F1F700C0000083E00E94C9018DEB25
:100450009AE00197F1F700C0000083E00E94C90113
:1004600082E00E94C90182E00E94C90188E00E94E6
:10047000C90180E00E94C9018CE00E94C90180E0AE
:100480000E94C90186E00E94C9010895CF93C82F38
:1004900061E070E084E190E00E9449008C2F829539
:1004A0008F700E94890161E070E085E190E00E9418
:1004B000490089EF90E00197F1F700C0000060E08B
:1004C00070E085E190E00E94490089EF90E001979B
:1004D000F1F700C000008C2F8F700E94890161E04D
:1004E00070E085E190E00E94490089EF90E001977B
:1004F000F1F700C0000060E070E085E190E00E944C
:10050000490089EF90E00197F1F700C00000CF911A
:100510000895CF93DF93EC018881882331F02196F1
:100520000E94460289918111FBCFDF91CF910895FE
:1005300081B3836081BB88E18AB986E880BD10BC45
:1005400083E389B9579A789408955D9BFECF8CB95F
:1005500089EF90E00197F1F700C000000895CF9374
:10056000DF93EC018881882331F021960E94A50257
:1005700089918111FBCFDF91CF9108951F920F9246
:100580000FB60F9211248F938091CC008CB98CB14F
:100590008093CC008F910F900FBE0F901F901895F5
:1005A000D8980895D99A08950E94EE0160E081E0FC
:1005B0000E94F50180E690E00E9489026DE081E0F2
:1005C0000E94F50187EC90E00E94890260E082E0E1
:1005D0000E94F5018FE690E00E9489026DE082E0C2
:1005E0000E94F50182EC90E00E94890287EA91E680
:1005F0000197F1F700C0000081E690E00E94AF0291
:1006000087EC90E00E94AF028DE790E00E94AF027D
:1006100082EC90E00E94AF028DE890E00E94AF0271
:1006200086B3B09919C0B09908C089EF90E00197DE
:10063000F1F700C00000B09BF8CF8091C00090910E
:10064000C10001969093C1008093C0004AE067EC1E
:1006500070E00E949C030895B19918C0B19908C038
:1006600089EF90E00197F1F700C00000B19BF8CF4F
:100670008091BE009091BF0001969093BF0080933F
:10068000BE004AE062EC70E00E949C03089580E89E
:1006900084BF84BF8FEF84BB8ABB17BA91E09BBB3A
:1006A00082BB0E9498028FE890E00E94AF028DE822
:1006B00090E00E94AF020E9412020E94EE0160E0F0
:1006C00081E00E94F5018CE990E00E9489022FE709
:1006D00084E89EE1215080409040E1F700C0000096
:1006E0000E94EE0160E081E00E94F5018DEA90E059
:1006F0000E9489020E94D2022FE784E89EE12150E5
:1007000080409040E1F700C000000E94D0024AE023
:1007100067EC70E08091C0009091C1000E949C0342
:100720004AE062EC70E08091BE009091BF000E94B0
:100730009C030E94D402FDCFBB274A3031F4992399
:1007400022F4BDE2909581959F4F0C94A803BB279E
:10075000FB015527AA27880F991FAA1FA41710F07D
:10076000A41B83955051B9F7A05DAA3308F0A95D89
:10077000A193009779F7B111B1931192CB010C9429
:10078000C103DC01FC01672F71917723E1F73297F8
:1007900004C07C916D9370836291AE17BF07C8F35C
:0607A0000895F894FFCF5C
:1007A6002054616C6C20436F756E74203A200053A0
:1007B600686F727420436F756E743A200020536818
:1007C6006F727420436F756E74203A20000A0055CC
:1007D60041525420494E49542E2E2E002020205797
:1007E600656C636F6D65212121202020002020206B
:0E07F60020506F776572204F6E20202020006B
:00000001FF
